:100000000C9446000C945D000C945D000C945D0013
:100010000C945D000C945D000C945D000C945D00EC
:100020000C945D000C945D000C945D000C945D00DC
:100030000C945D000C945D000C945D000C945D00CC
:100040000C945D000C945D000C945D000C945D00BC
:100050000C945D000C945D000C945D000C945D00AC
:100060000C945D000C945D000C945D000C945D009C
:100070000C945D000C945D000C945D000C945D008C
:100080000C945D000C945D000C945D0011241FBE67
:10009000CFEFD0E4DEBFCDBF11E0A0E0B1E0ECE6F1
:1000A000F2E000E00BBF02C007900D92AE30B10746
:1000B000D9F70E9488000C9434010C940000CF936F
:1000C000DF9300D01F92CDB7DEB789837B836A832D
:1000D00089818A3031F48A819B81BC018DE00E9444
:1000E0005F0080EC90E0FC018081882F90E08072BE
:1000F0009927892BB1F386EC90E02981FC012083BC
:1001000080E090E00F900F900F90DF91CF910895D5
:10011000CF93DF931F92CDB7DEB781E290E0FC0171
:10012000108282E290E02FEFFC01208387E290E0D2
:100130002FEFFC01208388E290E0FC0110821982FD
:1001400080E290E0FC0180818095898388E290E0E4
:1001500020E4FC0120838981882F90E08170992719
:10016000892B39F48981882F90E082709927892B17
:1001700029F088E290E020E6FC0120838981882F25
:1001800090E083709927039739F08981882F90E058
:1001900084709927892B29F088E290E020E7FC0100
:1001A00020838981882F90E085709927059739F001
:1001B0008981882F90E086709927069729F488E234
:1001C00090E028E3FC0120838981882F90E08770EC
:1001D0009927079771F08981882F90E08870992777
:1001E000892B39F48981882F90E0897099270997A4
:1001F00029F488E290E02CE3FC0120838981882F98
:1002000090E08A7099270A9771F08981882F90E091
:100210008B7099270B9739F08981882F90E08C702B
:1002200099270C9729F488E290E02EE3FC012083C3
:100230008981882F90E08D7099270D9779F08981B9
:10024000882F90E08E7099270E9741F08981882F32
:1002500090E08F7099270F9709F072CF88E290E0B5
:0C0260002FE3FC0120836CCFF894FFCF4B
:0E026C0000000002000000005F000000000023
:00000001FF
